:100000000C943B020C9463020C9463020C94421B0C
:100010000C94421B0C94421B0C9463020C946302DC
:100020000C9463020C9463020C9463020C946302BC
:100030000C9463020C9463020C9463020C946302AC
:100040000C94F81A0C9463020C94C61A0C94A01A1F
:100050000C9463020C9463020C9463020C9463028C
:100060000C9463020C94630200407A10F35A00A0CF
:10007000724E18090010A5D4E80000E87648170071
:1000800000E40B54020000CA9A3B000000E1F505B1
:10009000000080969800000040420F000000A086FB
:1000A00001000000102700000000E803000000002D
:1000B0006400000000000A000000000001000000D1
:1000C00000002C76D888DC674F0823DFC1DFAE59EB
:1000D000E1B1B796E5E3E453C63AE651997696E87E
:1000E000E6C28426EB898C9B62ED407C6FFCEFBC02
:1000F0009C9F40F2BAA56FA5F490055A2AF75C932D
:100100006B6CF9676DC11BFCE0E40D47FEF520E662
:10011000B500D0ED902E0300943577050080841E45
:10012000080000204E0A000000C80C333333330FA0
:10013000986E12831141EF8D2114893BE65516CF3D
:10014000FEE6DB18D1844B381BF77C1D901DA4BB49
:10015000E424203284725E228100C9F124ECA1E5FE
:100160003D2725642E25642E25642E2564004461D8
:100170007461207061636B65742073656E642065C3
:1001800072726F722028322900446174612070619C
:10019000636B65742073656E64206572726F722084
:1001A0002831290041542B43495053454E443D25A5
:1001B000642C2575004661696C656420746F207736
:1001C0007269746520746F20736F636B657400418E
:1001D000542B434950434C4F53453D2564004469DB
:1001E00073636F6E6E656374696E67200041542B94
:1001F000434950535441545553002B434950535491
:10020000415455533A25642C000D0A00535441546F
:1002100055533A0041542B4349505354415455537C
:100220000022003A53544149502C220041542B43A0
:10023000494653520022002B43495041503A6970BD
:100240003A220041542B43495041503F00456E64CF
:1002500020746167206E6F7420666F756E64004E47
:100260006F2074616720666F756E64003E3E3E20AD
:1002700054494D454F5554203E3E3E00000000007D
:10028000240027002A000D0A0053444B2076657293
:1002900073696F6E3A0041542B474D520041542B05
:1002A0004357444843503D312C310041542B435770
:1002B0004155544F434F4E4E3D300041542B43491E
:1002C0005044494E464F3D310041542B4349504D17
:1002D00055583D310041542B43574D4F44453D3116
:1002E00000415445300041542B52535400496E692B
:1002F00074696C697A6174696F6E20737563636584
:10030000737366756C202D005761726E696E673A63
:1003100020556E737570706F7274656420666972B3
:100320006D776172650043616E6E6F7420696E69EE
:100330007469616C697A6520455350206D6F6475EE
:100340006C6500415400496E697469616C697A6931
:100350006E6720455350206D6F64756C65002200F8
:100360002B43574A41503A220041542B43574A41AC
:10037000503F000D0A002C2D0041542B43574A4199
:10038000503F0041542B4357514150004E6F207352
:100390006F636B657420617661696C61626C650086
:1003A00041542B43495053544152543D25642C220F
:1003B000544350222C222573222C257500436F6E46
:1003C0006E656374696E6720746F0054494D454FC4
:1003D00055543A0054616720434C4F534544206EB6
:1003E0006F7420666F756E6400436F6E6E65637424
:1003F000656420746F004661696C656420636F6E8C
:100400006E656374696E6720746F0041542B4357A7
:100410004A41505F4355523D222573222C222573B9
:100420002200000000080002010000030407000091
:10043000000000000000000000002300260029004A
:1004400000000000250028002B000404040404041C
:100450000404020202020202030303030303010273
:100460000408102040800102040810200102040842
:100470001020E01BBA1B11241FBECFEFD8E0DEBF57
:10048000CDBF13E0A0E0B1E0E2EDF0E602C00590E0
:100490000D92A83FB107D9F726E0A8EFB3E001C05D
:1004A0001D92A637B207E1F712E0CAE3D2E004C01A
:1004B0002197FE010E94422EC933D107C9F70E943D
:1004C0000C1E0C945C300C9400008091810490917F
:1004D0008204DC01ED91FC910084F185E02D099509
:1004E0001816190664F48091810490918204DC014D
:1004F000ED91FC910284F385E02D0995E6CF0895F6
:10050000DC01ED91FC910190F081E02D0994EF92D6
:10051000FF920F931F93CF93DF938C017B01D0E069
:10052000C0E0F701EC0FFD1F6491662361F0D80174
:10053000ED91FC910190F081E02DC8010995892B86
:1005400011F02196EECFCE01DF91CF911F910F9147
:10055000FF90EF900895AF92BF92CF92DF92EF920B
:10056000FF920F931F93CF93DF936C017B018B015D
:10057000040F151FEB015E01AE18BF08C017D107AD
:1005800059F06991D601ED91FC910190F081E02D37
:10059000C6010995892B79F7C501DF91CF911F918C
:1005A0000F91FF90EF90DF90CF90BF90AF900895A4
:1005B000FC01538D448D252F30E0842F90E0821B69
:1005C000930B541710F0CF96089501970895FC01EE
:1005D000918D828D981761F0A28DAE0FBF2FB11D46
:1005E0005D968C91928D9F5F9F73928F90E008959E
:1005F0008FEF9FEF0895FC01918D828D981731F058
:10060000828DE80FF11D858D90E008958FEF9FEFAB
:100610000895FC01918D228D892F90E0805C9F4F81
:10062000821B91098F739927089583E894E00E94B3
:10063000090321E0892B09F420E0822F089580E04E
:1006400090E0892B29F00E94150381110C94000081
:100650000895FC01A48DA80FB92FB11DA35ABF4F57
:100660002C91848D90E001968F739927848FA689B1
:10067000B7892C93A089B1898C91837080648C9305
:10068000938D848D981306C00288F389E02D8081B4
:100690008F7D80830895EF92FF920F931F93CF93E6
:1006A000DF93EC0181E0888F9B8D8C8D98131AC0AD
:1006B000E889F989808185FF15C09FB7F894EE8994
:1006C000FF896083E889F9898081837080648083F1
:1006D0009FBF81E090E0DF91CF911F910F91FF903C
:1006E000EF900895F62E0B8D10E00F5F1F4F0F73E4
:1006F0001127E02E8C8D8E110CC00FB607FCFACF9F
:10070000E889F989808185FFF5CFCE010E94290310
:10071000F1CFEB8DEC0FFD2FF11DE35AFF4FF0826F
:100720009FB7F8940B8FEA89FB8980818062CFCFD5
:10073000CF93DF93EC01888D8823B9F0AA89BB8918
:10074000E889F9898C9185FD03C0808186FD0DC003
:100750000FB607FCF7CF8C9185FFF2CF808185FF24
:10076000EDCFCE010E942903E9CFDF91CF9108950B
:10077000833081F028F4813099F08230A9F0089517
:100780008730A9F08830C9F08430B1F480918000BE
:100790008F7D03C0809180008F77809380000895C3
:1007A00084B58F7784BD089584B58F7DFBCF80910C
:1007B000B0008F778093B00008958091B0008F7D56
:1007C000F9CF1F93CF93DF93282F30E0F901EE5D2F
:1007D000FB4F8491F901E25AFB4FD491F901E65B9A
:1007E000FB4FC491CC23A9F0162F81110E94B803AE
:1007F000EC2FF0E0EE0FFF1FE05CFB4FA591B491F2
:100800008FB7F894EC91111108C0D095DE23DC93DA
:100810008FBFDF91CF911F910895DE2BF8CFBF924C
:10082000CF92DF92EF92FF920F931F93CF93DF93BC
:10083000C12CC7E0D0E003E210E0EE24E394F12CF9
:1008400060E080915D060E94E103C8010197F1F725
:1008500020915E0630E0F901EE5DFB4F8491F901D5
:10086000E25AFB4FD490F901E65BFB4FB490BB20FA
:10087000A9F081110E94B803EB2DF0E0EE0FFF1FED
:10088000EA5CFB4FA591B491EC91DE2239F0C701EF
:100890000C2E01C0880F0A94EAF7C82A61E0809103
:1008A0005D060E94E103C8010197F1F7219708F066
:1008B000C7CF8C2DDF91CF911F910F91FF90EF90BB
:1008C000DF90CF90BF900895CF93DF9360E0809149
:1008D0005F060E94E10383E290E00197F1F70E9436
:1008E0000F04C82FD0E0DC2FCC270E940F04C82BA8
:1008F00061E080915F060E94E103C2FD13C083E0C6
:10090000D695C7958A95E1F7BE0190E080E00E94F8
:10091000FE2A20E030E040E85EE30E945F2BDF919A
:10092000CF91089560E070E080EC9FE7F8CFCF931F
:10093000DF9390E0FC01E25AFB4F2491865B9B4FD2
:10094000FC0184918823D1F090E0880F991FFC016D
:10095000E458FD4FA591B491FC01E05CFB4FC591BB
:10096000D49161110EC09FB7F8948C91E22FE0955D
:100970008E238C932881E223E8839FBFDF91CF9160
:1009800008958FB7F894EC91E22BEC938FBFF6CFDC
:100990003FB7F8948091410490914204A0914304A0
:1009A000B091440426B5A89B05C02F3F19F00196CD
:1009B000A11DB11D3FBFBA2FA92F982F8827BC01B9
:1009C000CD01620F711D811D911D42E0660F771FE1
:1009D000881F991F4A95D1F708958F929F92AF92E1
:1009E000BF92CF92DF92EF92FF924B015C010E9487
:1009F000C8046B017C010E94C8046C197D098E0932
:100A00009F09683E734081059105A8F321E0821A91
:100A10009108A108B10888EEC80E83E0D81EE11C39
:100A2000F11C81149104A104B10429F7FF90EF9007
:100A3000DF90CF90BF90AF909F908F9008952FB789
:100A4000F89460913D0470913E0480913F04909130
:100A500040042FBF08950F931F93CF93DF93EC01B2
:100A60000E941F05688779878A879B87E881F981BB
:100A70000484F585E02DCE01099597FF15C00E94ED
:100A80001F05088519852A853B85601B710B820B24
:100A9000930B0C811D812E813F81601771078207A6
:100AA000930720F38FEF9FEFDF91CF911F910F916D
:100AB0000895BF92CF92DF92EF92FF920F931F9310
:100AC000CF93DF938C01C8010E942B05EC0197FDA9
:100AD0005DC0D801ED91FC910284F385E02D8D324B
:100AE000910521F0C0970A9708F04AC0C12CD12C7B
:100AF0007601B12CC130D105D9F0CD32D10509F440
:100B000042C0CE01C0970A9798F4AAE0B0E0A701CE
:100B100096010E946E2C6E01DD0FEE08FF08C60ED6
:100B2000D71EE81EF91EB0E3CB1AD108E108F10880
:100B3000D801ED91FC910284F385E02DC80109955F
:100B4000C8010E942B05EC01C0970A9798F2C130AA
:100B5000D10581F2BB2041F0F094E094D094C09490
:100B6000C11CD11CE11CF11CC701B601DF91CF9162
:100B70001F910F91FF90EF90DF90CF90BF9008955D
:100B8000C8010995A0CFBB24B394D2CFC12CD12CDE
:100B90007601EACF4F925F926F927F928F929F92EF
:100BA000AF92BF92CF92DF92EF92FF920F931F937B
:100BB000CF93DF938C013B01EA012901633071057A
:100BC00009F05EC0D801EC91F0E0F595E795F59558
:100BD000E795EC52FE4F80818883EC91B0E1EB9F6A
:100BE000F0011124E073FF27D80111968C91119721
:100BF00090E044E0959587954A95E1F7E82BF92B2D
:100C0000EC52FE4F808189831196EC91B4E0EB9F0A
:100C1000F0011124EC73FF27D80112968C911297E2
:100C200090E056E0959587955A95E1F7E82BF92BDA
:100C3000EC52FE4F80818A831296EC91EF73F0E0C4
:100C4000EC52FE4F80818B83C301029663E070E01B
:100C50000E94DF2DCB01880F991F880F991FDF910C
:100C6000CF911F910F91FF90EF90DF90CF90BF90A9
:100C7000AF909F908F907F906F905F904F9008956E
:100C80006230710581F5D801EC91F0E0F595E795BA
:100C9000F595E795EC52FE4F80818883EC91B0E1A9
:100CA000EB9FF0011124E073FF27D80111968C917E
:100CB000119790E024E0959587952A95E1F7E82B28
:100CC000F92BEC52FE4F808189831196EC91B4E0B0
:100CD000EB9FF0011124EC73FF27EC52FE4F808153
:100CE0008A838DE3B0CF61307105F9F0CB0163E009
:100CF00070E00E94DF2D7B0158016E01912C812C48
:100D00008E149F045CF524E030E0A60163E070E0FF
:100D1000C5010E94CA058FEF881A980AA3E0AA0E9F
:100D2000B11CB4E0CB0ED11CEBCFD801EC91F0E0BC
:100D3000F595E795F595E795EC52FE4F8081888310
:100D4000EC91B0E1EB9FF0011124E073FF27EC522E
:100D5000FE4F808189838DE38A8375CFF7FE02C0C1
:100D6000F12CE12CC30163E070E00E94DF2DFC0157
:100D7000181619060CF068CF6701CC0CDD1CCC0CE2
:100D8000DD1C92012C193D09A3E0880F991FAA953B
:100D9000E1F766E070E00E94DF2D261737070CF4BC
:100DA00053CFAE014C0D5D1DC701880F991F8E0DED
:100DB0009F1DBF01800F911F0E94CA0545CFCF9391
:100DC000DF931F92CDB7DEB7DC01ED91FC91028875
:100DD000F389E02D41E050E0BE016F5F7F4F099540
:100DE000892B31F0898190E00F90DF91CF910895A8
:100DF0008FEF9FEFF9CFCF93DF931F92CDB7DEB781
:100E00006983DC01ED91FC910280F381E02D41E0EA
:100E100050E0BE016F5F7F4F09950F90DF91CF913A
:100E200008950895CF93DF93EC018C859D85DC01B7
:100E3000ED91FC910288F389E02D0995288D398D7B
:100E4000285031092330310568F42C8D3D8D121660
:100E5000130644F497FD06C02E8D3F8D280F391FD1
:100E60003F8F2E8FDF91CF9108956F927F928F9257
:100E70009F92AF92BF92CF92DF92EF92FF920F9329
:100E80001F93CF93DF93EC014B013A010E941207AD
:100E9000DC01181619060CF048C0FE01E254FF4FA1
:100EA000208131814281538164817581868197815E
:100EB0005D011B2F110F110BC12ED12EE12EF12E32
:100EC000012F0E94192E2083318342835383648330
:100ED00075838683978338968081882331F1C40196
:100EE0009E0129533F4FAC01481959094615570532
:100EF000E4F4FC017191CF01AF0141505109F901B6
:100F000000811181F801E370FF27EC0FFD1FE7530B
:100F1000FF4F60816727FA016083F90140815181A9
:100F20004F5F5F4F51834083DECFCD01DF91CF9183
:100F30001F910F91FF90EF90DF90CF90BF90AF90F7
:100F40009F908F907F906F900895CF93DF93EC01E7
:100F50008CA181110EC08C859D85DC01ED91FC91E9
:100F60000284F385E02D099597FF0FC0DF91CF91A3
:100F70000895E881F9810084F185E02DCE0109957D
:100F8000892B49F78FEF9FEFF1CF488D598D9A014B
:100F9000285031092330310548F72C8D3D8D12162C
:100FA000130634F42E8D3F8D2F5F3F4F3F8F2E8FD2
:100FB0004A305105D9F62DA13EA1215031093EA359
:100FC0002DA3232B99F629E030E0398F288FCECF3F
:100FD0002F923F924F925F926F927F928F929F9249
:100FE000AF92BF92CF92DF92EF92FF920F931F9337
:100FF000CF93DF93EC010E941F054B015C0184E05D
:10100000282E312C06E010E098E0492E512C29E0E2
:10101000622E712C37E0E32EF12C45E0C42ED12C4A
:10102000888D998D08970397F8F00E941F0568191D
:1010300079098A099B092FA138A549A55AA56217E4
:1010400073078407950780F4E881F9810084F185AE
:10105000E02DCE010995892B11F568EE73E080E053
:1010600090E00E94ED04DCCF888D998D089703975E
:1010700008F49EC08DEF9FEFDF91CF911F910F91EC
:10108000FF90EF90DF90CF90BF90AF909F908F90A8
:101090007F906F905F904F903F902F900895E881E0
:1010A000F9810284F385E02DCE010995288D398DD3
:1010B000A901485051094330510508F43FC025307B
:1010C000310509F440C02730310509F452C02430FD
:1010D000310509F06AC0A8A1B9A19C91891312C079
:1010E0009D012F5F3F4F39A328A311969C91911129
:1010F00006C0D98EC88E1D8E1C8E1F8E1E8E8A3005
:10110000E9F445C0EAA1FBA1908189130DC09F01BC
:101110002F5F3F4F3BA32AA391819111F0CF91E024
:101120009CA3198F088FEBCFA551B240D1F7E6529F
:10113000F240B9F78D30A9F7F98EE88E0E941F05AD
:101140004B015C016DCF282F082E000C330B205370
:1011500031092A30310528F76C8D7D8D9AE0969FF4
:10116000A001979F500D1124240F351F3D8F2C8F08
:10117000C6CF8A3019F78CA18823A1F0798E688EAA
:101180001EA21DA2888D998D08970397B8F2398EFB
:10119000288E85E192E099A388A386E292E09BA342
:1011A0008AA3CCCF598E488EEDCF8A3039F6EACF5C
:1011B00090E080E061CFCF93DF93EC018C859D853B
:1011C000DC01ED91FC910488F589E02D0995198EDB
:1011D000188E1B8E1A8E8FEF9FEF9D8F8C8F1F8E18
:1011E0001E8E85E192E099A388A386E292E09BA3FC
:1011F0008AA31CA21EA21DA280E395E7A0E0B0E096
:101200008FA398A7A9A7BAA7DF91CF91089520919E
:101210004A0530914B052817390771F49091450420
:1012200080914604981741F0E0914504F0E0E450C5
:10123000FC4F808190E008958FEF9FEF089508950F
:10124000EF92FF920F931F93CF93DF93DC015C9695
:10125000ED90FC905D97E114F10479F481E090E069
:1012600013969C938E93129790E080E0DF91CF913C
:101270001F910F91FF90EF9008955196ED91FC9181
:10128000529750968C915097982F90950FB75E96E5
:101290002C915E97122F127021FD6095F894208199
:1012A000112319F1282B2083E7012197F1F728E07A
:1012B000462F50E0308160FF1AC0382B3083E701A1
:1012C0002197F1F7BA0175956795215089F7112398
:1012D00081F08081892380830FBF5C968D919C91E2
:1012E0000197F1F781E090E0C1CF2923DCCF3923CA
:1012F000E5CF9081892BEFCF20914A0530914B05A6
:101300002817390771F4809146042091450490E034
:10131000805C9F4F821B910960E470E00E94DF2D8A
:10132000089590E080E0089520914A0530914B05A2
:1013300028173907B9F4909145048091460498170D
:1013400089F0E0914504F0E0E450FC4F8081209169
:10135000450430E02F5F3F4F2F7333272093450420
:1013600090E008958FEF9FEF08958F929F92AF9234
:10137000BF92CF92DF92EF92FF920F931F93CF9382
:10138000DF9340917D0450917E0460917F047091C1
:101390008004141615061606170644F490917C0472
:1013A000981709F417C1992309F414C1F82E8091F4
:1013B000810490918204DC01ED91FC910084F1851F
:1013C000E02D0995892B19F450E040E003C100910C
:1013D000810410918204D0E0C0E00E941F05F80152
:1013E0006087718782879387D801ED91FC91028491
:1013F000F385E02DC801099597FF47C00E941F059E
:10140000F80180849184A284B384681979098A09D7
:101410009B0984809580A680B780681579058A0528
:101420009B0510F3D1CFC1E0D0E0D7CF4F0141E40D
:1014300052E0209791F2BE012197D4012E914D01E7
:10144000022E000C330B8217930729F0209729F204
:101450004F5F5F4FF0CF209731F36A01BFEFCB1A98
:10146000DB0AA1E4B2E030E020E0BD90F601E190BB
:101470006F01BE1005C02F5F3F4F2C173D07A8F32B
:10148000C217D30729F7EB01A8CFFE01EF5BFD4F91
:101490002081022E000C330B8217930739F6219618
:1014A000C530D10509F099CF8091810490918204D3
:1014B0000E94590560937C0480918104909182047C
:1014C000DC01ED91FC910284F385E02D099580917A
:1014D0008104909182040E94590560937D04709369
:1014E0007E0480937F049093800480918104909186
:1014F0008204DC01ED91FC910284F385E02D0995D5
:1015000080918104909182040E9459058091810408
:1015100090918204DC01ED91FC910284F385E02D31
:10152000099580918104909182040E9459058091CF
:10153000810490918204DC01ED91FC910284F38599
:10154000E02D099580918104909182040E945905B3
:101550008091810490918204DC01ED91FC910284E0
:10156000F385E02D099580918104909182040E9479
:1015700059058091810490918204DC01ED91FC91E8
:101580000284F385E02D0995809181049091820475
:10159000DC01ED91FC910284F385E02D09958091A9
:1015A0008104909182040E94590580918104909158
:1015B0008204DC01ED91FC910284F385E02D099514
:1015C00080917C04F81611F0F110FECE40917D045C
:1015D00050917E04CA01DF91CF911F910F91FF902E
:1015E000EF90DF90CF90BF90AF909F908F90089535
:1015F00021E0FC0184858F3F09F420E0822F0895CB
:10160000CF93DF93EC01E881F9810084F185E02D2F
:10161000CE010995892B41F0E881F9810284F38597
:10162000E02DCE010995EFCFDF91CF9108958F92F4
:101630009F92AF92BF92EF92FF920F931F93CF931F
:10164000DF93EC017B018A01E881F9810084F18557
:10165000E02D0995892B69F48FEF9FEFDF91CF91F2
:101660001F910F91FF90EF90BF90AF909F908F9040
:1016700008959C8580917C04981336C080917D04E8
:1016800090917E04A0917F04B0918004A80170E045
:1016900060E084179507A607B7070CF48C01E701F3
:1016A000E00EF11EEC16FD06E9F00E941F054B014D
:1016B0005C018091810490918204DC01ED91FC91A8
:1016C0000284F385E02D099597FF11C00E941F0544
:1016D000681979098A099B09683E7340810591055B
:1016E00040F3BACFC801BACF80E090E0B7CF89937A
:1016F00080917D0490917E04A0917F04B09180043C
:101700000197A109B10980937D0490937E04A09371
:101710007F04B0938004C6CFFC0184858F3F21F005
:101720000E94B50997FF02C090E080E00895CF9332
:10173000DF931F92CDB7DEB76983DC01ED91FC9199
:101740000280F381E02D41E050E0BE016F5F7F4FEA
:1017500009950F90DF91CF9108950895FC0147A35B
:1017600050A761A772A70895FC0167A170A581A584
:1017700092A5089521E0FC0184859585892B09F4C3
:1017800020E0822F0895DC011C968D919C91DC0154
:10179000ED91FC910688F789E02D0994DC011C96F7
:1017A0008D919C91DC01ED91FC910088F189E02DF7
:1017B00009940F931F93CF93DF9300D000D000D0F4
:1017C000CDB7DEB7DC011C968D919C91DC01ED91CB
:1017D000FC910684F785E02D2CE531E03A832983DE
:1017E000DB0112960D911D912D913C9115970B8364
:1017F0001C832D833E83BE016F5F7F4F0995269624
:101800000FB6F894DEBF0FBECDBFDF91CF911F9111
:101810000F910895DC011C968D919C91DC01ED9156
:10182000FC910680F781E02D0994DC011C968D91D6
:101830009C91DC01ED91FC910484F585E02D0994E7
:10184000CF93DF93EC010E94150C8F3F980791F026
:10185000FE01EA53FF4F2081222361F0319620815F
:10186000318123703327C20FD31FC753DF4F9881B5
:10187000892790E0DF91CF910895FC01808D918DB3
:101880000897039758F4248D358D2F3F320731F098
:1018900081E0468D578D421753070CF480E0089580
:1018A00090E080E00895CF93DF93EC0160E08E81BB
:1018B0000E94E10361E08E810E94E10360E08E817D
:1018C0000E94E1038BE891E00197F1F7DF91CF915E
:1018D0000895CF92DF92EF92FF920F931F93CF93D1
:1018E000DF936C017C0187E0E80EF11CD0E0C0E0E2
:1018F000062F10E0B8010C2E02C0759567950A946A
:10190000E2F76170F70181917F010E94E103219666
:10191000C430D10579F7C601DF91CF911F910F91A6
:10192000FF90EF90DF90CF900C94530CCF92DF920A
:10193000EF92FF920F931F93CF93DF93EC01F62E5C
:10194000642F8C810E94E1038D818F3F19F060E04C
:101950000E94E1030F2D10E08F8584FF25C06E01EA
:1019600087E0C80ED11CF12CE12CB8010E2C02C06E
:10197000759567950A94E2F76170F60181916F01A0
:101980000E94E103FFEFEF1AFF0A88E0E816F10476
:1019900061F7CE01DF91CF911F910F91FF90EF90F2
:1019A000DF90CF900C94530CB80184E07595679547
:1019B0008A95E1F7CE010E94690C6F2DCE01DF916F
:1019C000CF911F910F91FF90EF90DF90CF900C94EB
:1019D000690C40E0682F85E496E00C94960CCF9358
:1019E000DF93823029F490915406986090935406C6
:1019F000809358061092590680E480935A0680E13D
:101A000080935B0680E580935C0661E080914906E7
:101A10000E94970480914A068F3F19F061E00E946E
:101A2000970461E080914B060E949704C5E4D6E0DC
:101A30009E01255436408091540684FD0BC084E0FD
:101A400090E021962817390744F461E08E810E94C6
:101A50009704EECF88E090E0F4CF8BE39DE0019710
:101A6000F1F760E0809149060E94E10360E0809117
:101A70004B060E94E10380914A068F3F19F060E017
:101A80000E94E1038091540684FD39C063E085E43F
:101A900096E00E94690CCBE4D6E4CE010197F1F701
:101AA00063E085E496E00E94690C2197F1F763E01A
:101AB00085E496E00E94690C83E592E00197F1F7D6
:101AC00062E085E496E00E94690C80915406806291
:101AD0000E94E90C84E0809355068CE00E94E90C9A
:101AE00081E00E94E90C8BE39FE10197F1F782E02E
:101AF0008093560686E0DF91CF910C94E90C8062CA
:101B00000E94E90C8BE496E40197F1F7809154066A
:101B100080620E94E90C83E592E00197F1F78091E1
:101B2000540680620E94E90CD0CF41E00E94960CDE
:101B300081E090E00895FC0101900020E9F73197E1
:101B40009F01281B390BE0916C06F0916D06E21B9A
:101B5000F30B4091680650916906E417F50730F4DD
:101B60006091660670916706E60FF71F280F391F10
:101B700060916A0670916B06DC018217930758F436
:101B80000196BC91A081BA1308C03196E617F707F9
:101B900099F7FA01F1CF81E0089580E00895FB0103
:101BA00001900020E9F73197AF01461B570BDC018C
:101BB000ED91FC910280F381E02D099465E672E0DD
:101BC0000C94CF0D0F931F93CF93DF93EC010E94E2
:101BD00087028C01CE010E94DE0D800F911FDF91E4
:101BE000CF911F910F910895EF92FF920F931F9342
:101BF000CF93DF93EC018B017A01888D998D029749
:101C000044F48C859D850E94DE0D82E090E0998FE2
:101C1000888F8C859D85DC01ED91FC910280F3819C
:101C2000E02DA701B801DF91CF911F910F91FF9097
:101C3000EF9009941F93CF93DF93EC01162F888DBB
:101C4000998D029744F48C859D850E94DE0D82E07B
:101C500090E0998F888F8C859D85DC01ED91FC91BA
:101C60000190F081E02D612FDF91CF911F910994B8
:101C70008F929F92AF92BF92EF92FF920F931F931A
:101C8000CF93DF93CDB7DEB7A1970FB6F894DEBF41
:101C90000FBECDBF7C01FA01CB0119A2223008F49E
:101CA0002AE08E010F5D1F4F822E912CB12CA12CAA
:101CB000BF01A50194010E942D2CF901CA016A30CF
:101CC0000CF5605DD8016E938D01232B242B252B01
:101CD00079F790E080E0109721F0BD01C7010E94E4
:101CE000CF0DA1960FB6F894DEBF0FBECDBFDF912A
:101CF000CF911F910F91FF90EF90BF90AF909F9069
:101D00008F900895695CDECF8F929F92AF92BF92C1
:101D1000CF92DF92EF92FF920F931F93CF93DF93B7
:101D20007C018B016C0182E0C80ED11C4701E5E00B
:101D30008E0E911CD0E0C0E0F60141916F0150E0A1
:101D400070E060E02AE0C8010E94380E5C016EE29B
:101D5000C8010E9480028A0D9B1DC80FD91FC8149C
:101D6000D90451F7F701458150E070E060E02AE0C6
:101D7000C8010E94380E8C0F9D1FDF91CF911F91DB
:101D80000F91FF90EF90DF90CF90BF90AF909F901A
:101D90008F900895CF93DF9363E874E00E94840EE0
:101DA000EC0183E894E00E94DE0D8C0F9D1FDF9113
:101DB000CF9108954F925F926F927F928F929F92F0
:101DC000AF92BF92CF92DF92EF92FF920F931F9349
:101DD000CF936B017C01742EAC019B010E94DA2D24
:101DE00067E472E0811126C046015701E894B7F814
:101DF0002FEF3FEF4FE75FE7C501B4010E94DA2DF7
:101E000081110CC02FEF3FEF4FE75FE7C501B40131
:101E10000E94F92A6BE472E0181664F02FEF3FEF8E
:101E20004FE75FE4C701B6010E94D52D1816ACF448
:101E30006FE472E085E496E0CF911F910F91FF90DF
:101E4000EF90DF90CF90BF90AF909F908F907F905A
:101E50006F905F904F900C94CF0D2FEF3FEF4FE7B7
:101E60005FECC701B6010E94F92A87FDE1CF20E0AF
:101E700030E0A901C701B6010E94F92A10E000E094
:101E800087FF0AC06DE285E496E00E9480028C0123
:101E9000F7FAF094F7F8F094C0E060E070E080E0CA
:101EA0009FE37C1641F020E030E040E251E40E94E4
:101EB000342DCF5FF6CFA70196010E94C82C2B01CD
:101EC0003C010E94A62D4B015C012AE0BC01A4014B
:101ED00085E496E00E94380E7C01E00EF11ECC23D2
:101EE000D1F1C501B4010E94FE2A9B01AC01C301DE
:101EF000B2010E94C72C4B015C016EE285E496E0C2
:101F00000E948002E80EF91EC15028F120E030E066
:101F100040E251E4C501B4010E945F2B2B013C015A
:101F20000E94A62D4B01B12CA12C2AE0B501A401E1
:101F300085E496E00E94380EE80EF91EC501B40152
:101F40000E94FE2A9B01AC01C301B2010E94C72C72
:101F50004B015C01D9CFC701CF911F910F91FF9029
:101F6000EF90DF90CF90BF90AF909F908F907F9039
:101F70006F905F904F9008950F931F93CF93DF93CF
:101F80008C01D0E0C0E06115710519F00E94CF0D01
:101F9000EC01C8010E94DE0D8C0F9D1FDF91CF91D7
:101FA0001F910F9108956115710511F00C94CF0DDB
:101FB00090E080E008950F931F93CF93DF938B0100
:101FC000CCE4D5E0BC018C859D850E94D30F60E5F3
:101FD00073E08C859D850E94D30FB8018C859D850B
:101FE000DF91CF911F910F910C94BC0F3F924F92B4
:101FF0005F926F927F928F929F92AF92BF92CF9299
:10200000DF92EF92FF920F931F93CF93DF936C01B8
:102010002B01342E809168069091690690936D068D
:1020200080936C060E941F054B015C0166246A9434
:10203000762C0D2C000CEE08FF080E941F05681975
:1020400079098A099B096C157D058E059F0508F0A5
:102050005BC08FEF6816780609F056C08091810446
:1020600090918204DC01ED91FC910084F185E02DDA
:102070000995892B11F38091810490918204DC01F0
:10208000ED91FC910284F385E02D0995E0916C06B9
:10209000F0916D06808380916C0690916D0601969B
:1020A00090936D0680936C0620916A0630916B06C2
:1020B0008217930740F0809168069091690690938B
:1020C0006D0680936C064114510441F0C2010E94D8
:1020D0009B0D882319F085E0682E712C332009F4BC
:1020E000ACCF02E111E0D0E0C0E0F8018191919124
:1020F0008F010E949B0D811105C02196C530D1052D
:10210000A1F79BCF3E0199CF0E941F05681979095D
:102110008A099B096C157D058E059F0560F063E5B6
:1021200072E083E894E00E94D30F6CE672E083E8EB
:1021300094E00E94E20DC301DF91CF911F910F91B6
:10214000FF90EF90DF90CF90BF90AF909F908F90D7
:102150007F906F905F904F903F900895CF93DF9363
:10216000EC010E946502BE0180918104909182047D
:102170000E94E20D41E070E060E088EE93E0DF91C4
:10218000CF910C94F60F8F929F92AF92BF92CF9205
:10219000DF92EF92FF92CF93DF93D82EEB01C42E04
:1021A00079010E941F054B015C018091810490918F
:1021B0008204DC01ED91FC910084F185E02D09950C
:1021C000892B09F47EC08091810490918204DC0106
:1021D000ED91FC91CC20E9F00484F585E02D099582
:1021E000888380917D0490917E04A0917F04B091BA
:1021F0008004892B8A2B8B2B29F181E0DF91CF91F1
:10220000FF90EF90DF90CF90BF90AF909F908F9016
:1022100008950284F385E02D0995888380917D04DB
:1022200090917E04A0917F04B09180040197A10950
:10223000B10980937D0490937E04A0937F04B093B2
:102240008004CFCF65E070E080E090E00E94ED0474
:102250008091810490918204DC01ED91FC910084D5
:10226000F185E02D0995892B41F2809181049091AF
:102270008204DC01ED91FC910484F585E02D099543
:102280002D2D30E0205D3F4F8217930709F0B5CF29
:1022900040E06EE572E084EF91E00E94F60F059752
:1022A00061F063E572E083E894E00E94D30F64ED8F
:1022B00073E083E894E00E94E20D81E0F7018083FF
:1022C0009DCF0E941F05681979098A099B09603D05
:1022D00077408105910508F468CF63E572E083E8F3
:1022E00094E00E94D30F6BEC73E083E894E00E94CB
:1022F000870260E772E083E894E00E94D30FC09009
:102300007D04D0907E04E0907F04F09080042AE069
:10231000B701A601F7FE0DC06DE283E894E00E94CC
:10232000800244275527BA014C195D096E097F09BF
:102330002AE083E894E00E94380E83E894E00E944B
:10234000DE0D10927D0410927E0410927F04109294
:10235000800410927C04188280E050CF0F931F936A
:10236000CF93DF9300D0CDB7DEB78C01DC01ED91C8
:10237000FC910084F185E02D0995892B59F11A8291
:10238000F801848590917C04891309C09E012E5F19
:102390003F4F40E0BE016F5F7F4F0E94C3108A81B4
:1023A000882379F0D8011C96EC911C97F0E0EE0F91
:1023B000FF1FE050FF4F8FEF9FEF918380831C96AC
:1023C0008C93898190E00F900F90DF91CF911F91B6
:1023D0000F9108958FEF9FEFF6CF0F931F93CF9339
:1023E000DF9300D0CDB7DEB78C01DC01ED91FC911D
:1023F0000084F185E02D0995892B59F11A82F801A5
:10240000848590917C04891309C09E012E5F3F4F03
:1024100041E0BE016F5F7F4F0E94C3108A81882315
:1024200079F0D8011C96EC911C97F0E0EE0FFF1F9D
:10243000E050FF4F8FEF9FEF918380831C968C932A
:10244000898190E00F900F90DF91CF911F910F91B4
:1024500008958FEF9FEFF6CFCF93DF93EC01888144
:102460009981009711F00E94E42E198218821D8232
:102470001C821B821A82DF91CF910895FC0180811A
:102480009181009711F00C94E42E08950C94E42EA1
:102490000F931F93CF93DF93EC018881998100976D
:1024A00059F02A813B812617370730F081E0DF9110
:1024B000CF911F910F9108958B016F5F7F4F0E9405
:1024C0006D2F009759F0998388831B830A832C8191
:1024D0003D81232B59F7FC011082E8CF80E0E7CF44
:1024E000EF92FF920F931F93CF93DF93EC017B0149
:1024F0008A01BA010E94481281110BC0CE010E94CC
:102500002C12CE01DF91CF911F910F91FF90EF9090
:1025100008951D830C83B701888199810E944630FC
:10252000F0CFEF92FF920F931F93CF93DF93CDB72E
:10253000DEB7A1970FB6F894DEBF0FBECDBF7C010A
:10254000CB01BA01F7011182108213821282158227
:1025500014828E010F5F1F4F22E044E00E94AE23E1
:102560000097C9F0FC0101900020E9F73197AF0115
:10257000481B590BBC01C7010E947012A1960FB6EF
:10258000F894DEBF0FBECDBFDF91CF911F910F91A9
:10259000FF90EF900895C7010E942C12EFCF4F9249
:1025A0005F926F927F928F929F92AF92BF92CF92E3
:1025B000DF92EF92FF920F931F93CF93DF93FC0173
:1025C0003B014A01808D918D08979CF4CF01DF91EA
:1025D000CF911F910F91FF90EF90DF90CF90BF9020
:1025E000AF909F908F907F906F905F904F900C94E2
:1025F000F40D83A9882309F457C0EF01CB54DF4FB2
:10260000A880B980CA80DB80EC80FD800E811F81AC
:1026100025019A0140E050E060E070E080E090E049
:102620000E94102E203831054105510561057105C4
:102630008105910531F028F088E090E04C01841884
:102640009508CF01C596A401B301840D951D0E9484
:102650003630940140E050E060E070E080E090E0CF
:10266000A880B980CA80DB80EC80FD800E811F814C
:102670000E94102E288339834A835B836C837D8379
:102680008E839F83C401DF91CF911F910F91FF90A3
:10269000EF90DF90CF90BF90AF909F908F907F9002
:1026A0006F905F904F900895912C812CEBCFEF921B
:1026B000FF920F931F93CF93DF9300D0CDB7DEB778
:1026C0008C01DC0158968D919C910997F9F4F801E1
:1026D00084859585DC01ED91FC910084F185E02DE8
:1026E0000995892B99F0F80184859585DC01ED9198
:1026F000FC910284F385E02D0995F82EBAE08B1346
:102700003CC08AE090E0F801918F808FD801589604
:102710008D919C9159970A9761F495968D919C9112
:102720009697892B31F489E090E059969C938E938B
:102730005897F801808D918D099709F444C08485DC
:102740009585DC01ED91FC910084F185E02D0995E2
:10275000F801208D318D2A30310531F425A136A1C3
:10276000281739070CF4C9010F900F90DF91CF9112
:102770001F910F91FF90EF900895FDE08F1709F4DE
:10278000A6CF082E000C990B0E942A30892B09F441
:102790009ECF1A821982F982D8019596ED90FC900D
:1027A00084E0EE0CFF1C8A95E1F740E150E070E018
:1027B00060E0CE0101960E9470246E0D7F1DF8012D
:1027C00076A365A384CF90E080E0CECFFC01208D7E
:1027D000318D2830310514F40C94571382549F4FD7
:1027E000FC018081918108953F924F925F926F9298
:1027F0007F928F929F92AF92BF92CF92DF92EF9291
:10280000FF920F931F93CF93DF93CDB7DEB7A997B6
:102810000FB6F894DEBF0FBECDBF81E090E090937D
:102820006505809364051092770580915805909115
:102830005905DC01ED91FC910688F789E02D099599
:10284000811133C060915A0570915B0580915805E4
:1028500090915905DC01ED91FC91409162055091F8
:1028600063056115710551F00088F189E02D099526
:10287000892BD9F4EE24EA94FE2C7FC10684F785D7
:10288000E02D2CE531E03A83298300915E0510911B
:102890005F0520916005309161050B831C832D83BA
:1028A0003E83BE016F5F7F4FE2CF62E772E08091AF
:1028B0005805909159050E94D30F60E772E080910E
:1028C0005805909159050E94D30F63E172E0809101
:1028D0005805909159050E94D30F66E772E08091E8
:1028E0005805909159050E94BC0F80917805882366
:1028F00009F440C080915A0590915B05892BA1F1A4
:1029000060E872E080915805909159050E94D30FBC
:1029100060915A0570915B05809158059091590519
:102920000E94D30F809162059091630580359105D7
:10293000A9F066E773E080915805909159050E94CF
:10294000D30F409162055091630570E060E02AE08A
:1029500080915805909159050E94380E8091580534
:10296000909159050E94DE0D67E872E085E992E0DA
:102970000E94DB0F80917705882331F060EA72E0D6
:1029800086EA92E00E94DB0F81E090E0909365057B
:10299000809364058E01065E1F4F6E01BAE2CB0E76
:1029A000D11C7801FEEF8F2E912CA12CB12C0E940E
:1029B0001824A50194010E944F2C6F5F7F4F8F4F09
:1029C0009F4FF80161938F01CE16DF0681F78E01CC
:1029D0000F5F1F4F89E1D8011D928A95E9F729E120
:1029E00030E0A80160E170E0C7010E94CA0561EB18
:1029F00072E08BEB92E00E94DB0F6BEB72E086EAF9
:102A000092E00E94DB0FB80183EC92E00E94DB0FA2
:102A100065ED72E088ED92E00E94DB0F8091640525
:102A200090916505029764F480915805909159053D
:102A30000E94DE0D82E090E090936505809364052E
:102A400080916405909165052EEFE22EFF24FA94A3
:102A500002970CF492C010E000E052E0852E912C19
:102A60006AE0362E73E0C72ED12CE4E0AE2EB12CF6
:102A70001092670510926605909265058092640534
:102A80000E941F052B013C0148E6E42E42E0F42E93
:102A90000A30110509F4A5C00E941F0564197509C3
:102AA0008609970920917305309174054091750549
:102AB00050917605621773078407950708F09DC04B
:102AC0008CE495E00E94E613892B09F447C08CE45E
:102AD00095E00E94DF068C010196D1F28091640599
:102AE000909165058230910539F00397E1F00E94DD
:102AF0001F052B013C01CCCFF70180818A3231F0D8
:102B0000082E000C990B0817190799F5C7010196B3
:102B1000D70111962C91211104C0D0926505C09265
:102B200064057C01E4CF9801205331092A30310536
:102B300028F0B0926505A0926405D9CF4091660552
:102B400050916705349EC001359E900D1124820F6F
:102B5000931F9093670580936605C9CF68EE73E075
:102B600080E090E00E94ED0493CF0A30110509F057
:102B70005BC03CEFE32EFF24FA9410920A061092F9
:102B80000B0610920C0610920D0610920E06109273
:102B90000F061092100610921106F5E6EF16F104DA
:102BA00011F4F12CE12CC701A9960FB6F894DEBF01
:102BB0000FBECDBFDF91CF911F910F91FF90EF908E
:102BC000DF90CF90BF90AF909F908F907F906F904D
:102BD0005F904F903F9008958CE495E00E94E80745
:102BE000CCCF8091660590916705883C91052CF4C7
:102BF0008536910511F010E000E080916405909118
:102C00006505049709F0B1CFE0906605F09067057F
:102C1000B8ECEB16F1042CF4E5E6EE16F10409F03D
:102C200027CF0A301105C1F28DEFE82EFF24FA9468
:102C3000A4CFCF93DF93CDB7DEB7C85CD1090FB671
:102C4000F894DEBF0FBECDBF9E012F523F4FC3533E
:102C5000DF4F48815981CD5CD04068EC70E0CE01F7
:102C600001960E9415260E946502BE016F5F7F4F8C
:102C700080918104909182040E94BC0F41E070E039
:102C800060E0C153DF4F88819981CF5CD0400E94C2
:102C9000F60FC853DF4F0FB6F894DEBF0FBECDBF9F
:102CA000DF91CF9108958EEE92E09F938F9387EFFF
:102CB00092E09F938F938EE48F9380E28F938BE0CB
:102CC00094E09F938F930E9419162DB73EB7285F0B
:102CD0003F4F0FB6F8943EBF0FBE2DBF63E572E0C5
:102CE000892BC1F483E894E00E94D30F69EE73E06E
:102CF00083E894E00E94870260E772E083E894E052
:102D00000E94D30F67EF72E083E894E00E94BC0F4B
:102D100081E0089583E894E00E94D30F66EF73E0AA
:102D200083E894E00E94870260E772E083E894E021
:102D30000E94D30F67EF72E083E894E00E94BC0F1B
:102D400068EE73E080E090E00E94ED040E9465026E
:102D500080E00895EF92FF920F931F93CF93DF933C
:102D6000EC01162F072FF42EE52E63E572E083E8C1
:102D700094E00E94D30F6DEB73E083E894E00E942F
:102D8000870260E772E083E894E00E94D30F612F2E
:102D9000702F83E894E00E94BC0FE0E0F1E083E054
:102DA00090E0268137812F3F3F4F31F001973297D6
:102DB0008F3F9807B1F78FEF8C878F3F69F1EF92C4
:102DC000FF920F931F931F928F9383E18F9388E855
:102DD0008F9380EA93E09F938F930E9419162DB7EB
:102DE0003EB7265F3F4F0FB6F8943EBF0FBE2DBFD4
:102DF000892BF1F48C8590E0FC01EE0FFF1FE05071
:102E0000FF4F9183808381E090E0DF91CF911F910C
:102E10000F91FF90EF90089563E572E083E894E0EE
:102E20000E94D30F6CE873E083E894E00E94E20D07
:102E300090E080E0EACF0C94AA16CF93DF93FC01D8
:102E400024852F3FF1F1EC0163E572E083E894E023
:102E50000E94D30F6EED71E083E894E00E94870238
:102E600060E772E083E894E00E94D30F4C8550E065
:102E700070E060E02AE083E894E00E94380E83E886
:102E800094E00E94DE0D8C851F928F938FE08F93CC
:102E900080EA8F938FEC91E09F938F930E94191695
:102EA000EC85F0E0EE0FFF1FE050FF4F8FEF9FEF3C
:102EB000918380838C870F900F900F900F900F90CD
:102EC0000F90DF91CF910895AF92BF92CF92DF9292
:102ED000EF92FF920F931F93CF93DF935C016B01EF
:102EE0007A01E90118820E946502B501809181048E
:102EF000909182040E94E20D41E0B60188E893E1DE
:102F00000E94F60F8530910509F058C0809168063F
:102F10009091690690936D0680936C0640916606C9
:102F2000509167064F5F5F4F70E060E00E943F3056
:102F300041E0B70184EF91E00E94F60F059781F51B
:102F4000A80141505109F70101900020E9F731979C
:102F5000EE19FF09609168067091690680916C0610
:102F600090916D06861B970B8E1B9F0B4817590778
:102F700008F0AC01CE010E944D3041E070E060E00D
:102F800088E59BE10E94F60F81E0DF91CF911F91D0
:102F90000F91FF90EF90DF90CF90BF90AF9008958A
:102FA00063E572E083E894E00E94D30F6DE472E081
:102FB00083E894E00E94E20D80E0E7CF0597E0F31C
:102FC00063E572E083E894E00E94D30F6FE572E05E
:102FD000EFCF4F925F926F927F928F929F92AF92BC
:102FE000BF92CF92DF92EF92FF920F931F93CF93F6
:102FF000DF93CDB7DEB74C016B015A0139014DB6F5
:103000005EB6CB010E94B52501962DB73EB7281BB1
:10301000390B0FB6F8943EBF0FBE2DBF8DB79EB7CC
:1030200001967C01B6010E94AE25C5010E94B5251E
:1030300001962DB73EB7281B390B0FB6F8943EBF4B
:103040000FBE2DBF8DB79EB701966C01B5010E94D2
:10305000AE259301A601B701C4010E9464170FB603
:10306000F8945EBE0FBE4DBEDF91CF911F910F91C0
:10307000FF90EF90DF90CF90BF90AF909F908F9098
:103080007F906F905F904F9008950F931F93CF9311
:10309000DF93CDB7DEB72A970FB6F894DEBF0FBE29
:1030A000CDBF0AE010E09E012F5F3F4F49E052E0A4
:1030B0006CE072E084E192E00E94E9178823C1F09D
:1030C000CE0101960E9487259C01225031092330B0
:1030D000310580F0059781F080E02A960FB6F894CC
:1030E000DEBF0FBECDBFDF91CF911F910F9108952D
:1030F0008FEFF3CF81E0F1CF83E0EFCFEF92FF923C
:103100000F931F93CF93DF93CDB7DEB764970FB6BE
:10311000F894DEBF0FBECDBF7C0104E110E09E013C
:103120002F5F3F4F45E352E067E372E083E492E0B4
:103130000E94E9178823A9F163E973E0CE010196A3
:103140000E94BE250E9487258093F80363E973E0FF
:1031500090E080E00E94BE250E9487258093F903BD
:1031600063E973E090E080E00E94BE250E9487251D
:103170008093FA0363E973E090E080E00E94BE254B
:103180000E9487258093FB038091F8039091F903B7
:10319000A091FA03B091FB03F70182839383A48388
:1031A000B58364960FB6F894DEBF0FBECDBFDF9136
:1031B000CF911F910F91FF90EF900895EF92FF92A2
:1031C0000F931F93CF93DF93CDB7DEB764970FB6FE
:1031D000F894DEBF0FBECDBF7C0104E110E09E017C
:1031E0002F5F3F4F41E252E063E272E08CE292E0F7
:1031F0000E94E9178823A9F163E973E0CE010196E3
:103200000E94BE250E9487258093F80363E973E03E
:1032100090E080E00E94BE250E9487258093F903FC
:1032200063E973E090E080E00E94BE250E9487255C
:103230008093FA0363E973E090E080E00E94BE258A
:103240000E9487258093FB038091F8039091F903F6
:10325000A091FA03B091FB03F70182839383A483C7
:10326000B58364960FB6F894DEBF0FBECDBFDF9175
:10327000CF911F910F91FF90EF900895CF92DF9221
:10328000EF92FF920F931F93CF93DF93CDB7DEB7EB
:103290006E970FB6F894DEBF0FBECDBFFC018485DC
:1032A0008F3FD1F17F010E94B509892B21F5D7010C
:1032B0001C968C911F928F938AEF91E09F938F932E
:1032C000FE0131966F01FF93EF930E94F2250AE011
:1032D00010E09E012B5E3F4F45E452E0B6018DEEBB
:1032E00091E00E9464170F900F900F900F900F9035
:1032F0000F90882311F094E010C0D7011C96EC9138
:103300001C97F0E0EE0FFF1FE050FF4F8FEF9FEF95
:10331000918380831C968C9390E081E0943009F037
:1033200080E06E960FB6F894DEBF0FBECDBFDF9182
:10333000CF911F910F91FF90EF90DF90CF90089564
:10334000AF92BF92CF92DF92EF92FF920F931F93B3
:10335000CF93DF93CDB7DEB764970FB6F894DEBF97
:103360000FBECDBF7C015B018A01DC011C968C91F4
:10337000843018F441155105C9F481E090E0F7015B
:103380009383828310E000E0C80164960FB6F8943E
:10339000DEBF0FBECDBFDF91CF911F910F91FF9088
:1033A000EF90DF90CF90BF90AF9008951F934F9311
:1033B0001F928F9384EA91E09F938F939E012F5FDA
:1033C0003F4F69013F932F930E94F225B6018091F0
:1033D0008104909182040E94BC0F40E068E073E099
:1033E00088E893E10E94F60F0FB6F894DEBF0FBE97
:1033F000CDBF059709F441C063E572E083E894E02E
:103400000E94D30F69E871E083E894E00E94E20D26
:1034100081E090E0F7019383828363E572E083E8C3
:1034200094E00E94D30F65EB71E083E894E00E9482
:10343000870260E772E083E894E00E94D30FD7012F
:103440001C964C9150E070E060E02AE083E894E044
:103450000E94380E83E894E00E94DE0D60EA7FE06F
:1034600080E090E00E94ED04D701ED91FC9104888A
:10347000F589E02DC701099585CF80918104909150
:103480008204DC01ED91FC910280F381E02DA80122
:10349000B501099541E070E060E088E59BE10E949C
:1034A000F60F039709F470CF63E572E083E894E0C8
:1034B0000E94D30F6EE671E0A7CFCF92DF92EF921A
:1034C000FF920F931F93CF93DF93CDB7DEB7609733
:1034D0000FB6F894DEBF0FBECDBF7C01FB016A01C1
:1034E00085811F928F9384811F928F9383811F9276
:1034F0008F9382811F928F9382E691E09F938F93A7
:103500008E010F5F1F4F1F930F930E94F225A6019C
:10351000B801C7010E94AA160FB6F894DEBF0FBE0D
:10352000CDBF60960FB6F894DEBF0FBECDBFDF9162
:10353000CF911F910F91FF90EF90DF90CF90089562
:103540001F920F920FB60F9211242F933F934F9318
:103550005F936F937F938F939F93AF93BF93EF93FB
:10356000FF9383E894E00E942903FF91EF91BF91BC
:10357000AF919F918F917F916F915F914F913F910B
:103580002F910F900FBE0F901F9018951F920F92C2
:103590000FB60F9211242F938F939F93EF93FF9366
:1035A000E0919304F09194048081E0919904F0916A
:1035B0009A0482FD1BC0908180919C048F5F8F7361
:1035C00020919D04821741F0E0919C04F0E0ED57BA
:1035D000FB4F958F80939C04FF91EF919F918F916A
:1035E0002F910F900FBE0F901F9018958081F4CFF0
:1035F0001F920F920FB60F9211242F933F938F9328
:103600009F93AF93BF9380913D0490913E04A0910E
:103610003F04B091400430913C0423E0230F2D3748
:1036200058F50196A11DB11D20933C0480933D04E3
:1036300090933E04A0933F04B093400480914104D2
:1036400090914204A0914304B09144040196A11DBD
:10365000B11D8093410490934204A0934304B0931E
:103660004404BF91AF919F918F913F912F910F9003
:103670000FBE0F901F90189526E8230F0296A11DEC
:10368000B11DD2CF1F920F920FB60F9211242F931C
:103690003F934F935F936F937F938F939F93AF93DA
:1036A000BF93EF93FF93E0914A05F0914B0530975C
:1036B00049F0A685B7858585968D91FF14C09C91AC
:1036C0008923A1F4FF91EF91BF91AF919F918F91C9
:1036D0007F916F915F914F913F912F910F900FBE0E
:1036E0000F901F9018959C91892361F7A389B48945
:1036F0009C918589809589238C93868997890197E8
:10370000F1F7608D718DA685B785558538E020E08D
:10371000CB010197F1F7822F90E095958795282F9F
:103720004C91452309F02068315091F7868D81FD39
:1037300020958091460490E001968F7399273091EF
:103740004504381799F0A0914604B0E0A450BC4F4E
:103750002C9380934604828D938D0197F1F7A38972
:10376000B4898C919589892B8C93ACCF868D81609F
:10377000868FF1CF82E691E090934D0580934C05C2
:1037800089E795E00E943E128EEA91E090931A0636
:103790008093190680914A0590914B058951964076
:1037A00071F4E0912C06F0912D06908180912E0607
:1037B00080958923808310924B0510924A050895C5
:1037C000CF92DF92EF92FF92CF93DF931092860415
:1037D0001092850498EEC92E93E0D92EE12CF12C9D
:1037E000C0928704D0928804E0928904F0928A04FF
:1037F00080E291E0909384048093830485EC90E0D0
:103800009093900480938F0484EC90E090939204C2
:103810008093910480EC90E09093940480939304BF
:1038200081EC90E0909396048093950482EC90E074
:10383000909398048093970486EC90E090939A0478
:103840008093990410929C0410929D0410929E04FF
:1038500010929F04CCE5D1E0D0932105C0932005C0
:10386000109222051092230510922405109225052E
:10387000D0932705C093260510922805109229059C
:1038800010922A0510922B05D0932D05C0932C057C
:1038900010922E0510922F051092300510923105CE
:1038A00080E290E0909367068093660681E290E064
:1038B0000E94482E90936906809368069C01205EC2
:1038C0003F4F30936B0620936A0690936D0680936A
:1038D0006C0621E2FC0111922A95E9F7D093330599
:1038E000C0933205109234051092350510923605BA
:1038F00010923705D0933905C093380510923A05D8
:1039000010923B0510923C0510923D05D0933F0567
:10391000C0933E0510924005109241051092420559
:1039200010924305D0934505C09344051092460577
:10393000109247051092480510924905D0936106F0
:10394000C09360061092620610926306109264069D
:103950001092650688E080935D0689E080935F069B
:103960008AE080935E0661E089E00E94970461E04E
:1039700080915D060E94970460E080915E060E943F
:10398000970461E080915F060E94E103109248066F
:103990001092470680E591E0909346068093450695
:1039A0008CE080934906CFEFC0934A068BE080936A
:1039B0004B0685E080934C0684E080934D0683E0BF
:1039C00080934E0682E080934F061092500610922C
:1039D000510610925206109253061092540681E03E
:1039E0000E94EF0C10923B0610923A06C0923C06E1
:1039F000D0923D06E0923E06F0923F0682E391E0CF
:103A00009093390680933806C093440610921C06A2
:103A100010921B06C0921D06D0921E06E0921F0651
:103A2000F09220068EEA91E090931A068093190690
:103A30001092300610922F06109232061092310624
:103A40001092340610923306109236061092350604
:103A5000609137066E7F6D7F609337066695617063
:103A600081E0682787E00E94E10361E087E00E942F
:103A70009704E5E6F4E0E491E0932906E1E5F4E05B
:103A8000E491F0E0EE0FFF1FE05CFB4F8591949115
:103A900090932B0680932A0660E086E00E949704AC
:103AA0008091370681FD04C061E086E00E94E10359
:103AB00086E080932506E4E6F4E0E491E0932606B0
:103AC000E0E5F4E0E491F0E0EE0FFF1FEA5CFB4F6D
:103AD00085919491909328068093270610924F0524
:103AE00010924E0588EE93E0A0E0B0E08093500580
:103AF00090935105A0935205B093530582E691E04F
:103B000090934D0580934C0588E396E0909359057A
:103B1000809358058CEB91E090935B0580935A0558
:103B20008CE591E090935D0580935C0510925E05B5
:103B300010925F05109260051092610580E590E09B
:103B4000909363058093620581E08093770580936D
:103B5000780510927A051092790510927C051092E2
:103B60007B0510927E0510927D0550E040E067E6EF
:103B700072E089E795E00E9470121092650510923C
:103B8000640510926705109266058FEF9FEF909382
:103B900069058093680510926B0510926A0585E1AE
:103BA00092E090936D0580936C0586E292E090938D
:103BB0006F0580936E051092700510927205109239
:103BC000710580E395E7A0E0B0E0809373059093E2
:103BD0007405A0937505B093760588E891E09093FD
:103BE0004D0580934C0510927F0510920A061092A5
:103BF0000B0610920C0610920D0610920E061092F3
:103C00000F061092100610921106DF91CF91FF90CF
:103C1000EF90DF90CF900895CF93DF93CDB7DEB7CD
:103C20006C970FB6F894DEBF0FBECDBF789484B505
:103C3000826084BD84B5816084BD85B5826085BDA8
:103C400085B5816085BD80916E00816080936E0036
:103C50001092810080918100826080938100809128
:103C600081008160809381008091800081608093D9
:103C700080008091B10084608093B1008091B00099
:103C800081608093B00080917A00846080937A0094
:103C900080917A00826080937A0080917A008160BE
:103CA00080937A0080917A00806880937A001092E5
:103CB000C10082E00E94EF0CE1E080915806811182
:103CC000E0E0E195F0E0EB5BF94F848980680E94C9
:103CD000E90C6AE073E085E496E00E94D30FE0917E
:103CE0009304F091940482E08083E0918F04F0913A
:103CF00090041082E0919104F09192048FEC808303
:103D000010929B04E0919704F091980486E08083E0
:103D1000E0919504F0919604808180618083E09128
:103D20009504F0919604808188608083E0919504E9
:103D3000F0919604808180688083E0919504F091F1
:103D4000960480818F7D8083109234061092330612
:103D500010923206109231061092300610922F0601
:103D60008DE991E090933606809335069091250673
:103D7000963108F047C02DEB30E0309330062093A9
:103D80002F062BE931E030933206209331062CE2E6
:103D900031E030933406209333062091680084E0AC
:103DA000983048F031E09E3008F430E081E001C006
:103DB000880F3A95EAF7822B809368002DE630E071
:103DC000983050F02BE630E09E3030F02CE630E0BA
:103DD000963110F030E020E030932D0620932C0631
:103DE000292F30E0983008F071C081E001C0880FC1
:103DF0009A95EAF780932E068091350690913606C3
:103E00000197F1F78091330690913406892B49F19F
:103E1000E0914A05F0914B0506E0E931F00709F120
:103E2000309739F0A389B4899C918589809589233D
:103E30008C93809137068E7F8093370610924604CC
:103E40001092450489E196E090934B0580934A05D2
:103E5000E0912C06F0912D06808190912E06892B01
:103E6000808363E572E083E894E00E94D30F66E408
:103E700073E083E894E00E94E20D89E196E090937C
:103E800082048093810405E010E083E493E00E94C3
:103E9000AE10892B09F4FBC368EE73E080E090E07C
:103EA0000E94ED040150110981F763E572E083E897
:103EB00094E00E94D30F66E273E083E894E00E94EE
:103EC000E20D68E873E180E090E045C49E3040F484
:103ED0002850310981E001C0880F2A95EAF78ACF7E
:103EE0002E503109F7CF63E572E083E894E00E9439
:103EF000D30F6DEE72E083E894E00E94870260E7E2
:103F000072E083E894E00E94D30F67E474E083E8F2
:103F100094E00E94BC0F0E94451811E08F3F09F405
:103F2000FFCF80916D0490916E040197E1F06BE1F9
:103F300073E083E894E00E94CF0D67EF72E083E8BE
:103F400094E00E94CF0D10936F040E9453168823B3
:103F500039F081E090E090936E0480936D04E1CF9E
:103F600082E090E0F8CF64E373E083E894E00E949D
:103F7000CF0D6CE473E083E894E00E94D30F1092BD
:103F80004D0400E210E02DE434E04EE553E060E63D
:103F900073E089E693E00E94E9176DE474E083E83A
:103FA00094E00E94BC0F8CE591E09C878B871D8676
:103FB0001E861F86188A80916F04813009F03AC2EC
:103FC000CE010B960E94DE1863E573E083E894E06F
:103FD0000E94D30FCE010B960E94CA0E0AE010E099
:103FE0009E012F5F3F4F43E753E066E773E089E7A9
:103FF00093E00E94E9178981082E000C990BC09765
:10400000D12CC12C0A9740F4CE0101960E9487253D
:10401000CC24DD24C81AD90A0D2C000CEE08FF08A8
:1040200060E673E083E894E00E94D30F2AE0B701D2
:10403000A601F7FE0DC06DE283E894E00E948002C5
:1040400044275527BA014C195D096E097F092AE0FA
:1040500083E894E00E94380E68E773E083E894E018
:104060000E94BC0F0E94F4136E0115E0C10ED11C1A
:10407000412C512C32014A9490E0292E90E0392EA7
:10408000FF24F3940E941F054B015C010E94451818
:104090008130F1F18091780490917904A0917A04B3
:1040A000B0917B04A5019401281B390B4A0B5B0BD3
:1040B000DA01C90180339547A105B10548F10E9495
:1040C0001F05AB01BC012AE083E894E00E94380E92
:1040D0006DE773E083E894E00E94BC0F83E893E00F
:1040E0000E94AE10892B41F060ED77E080E090E017
:1040F0000E94ED040E946502F0926F040E94531624
:104100008092780490927904A0927A04B0927B0411
:104110000E94640460937404709375048093760421
:10412000909377040E94640420E030E040E151E481
:104130000E945F2B20E030E040EA50E40E94342DE2
:1041400020E030E040E052E40E94C82CAB01BC010A
:1041500040937004509371046093720470937304DD
:10416000CE0101960E949112409174045091750401
:104170006091760470917704CE0141960E9491126D
:104180001C861B861E861D86188A1F8669897A8969
:104190006115710531F04D895E89CE010B960E9443
:1041A00070120F8518890D5F1F4FB801CE010B9655
:1041B0000E944812882309F442C12B853C858F85D3
:1041C000988965E973E0820F931F0E944630188B2F
:1041D0000F87A980BA80A114B10409F435C10D81FB
:1041E0001E8101151105B9F08F859889080F191FD7
:1041F000B801CE010B960E944812882309F424C10D
:104200002B853C858F859889B501820F931F0E946D
:104210004630188B0F87188E1F8A1A8E198E1C8EA7
:104220001B8E6B857C856115710531F04F85588932
:10423000CE0147960E947012CE010B960E943E124C
:10424000CE0141960E943E12CE0101960E943E127E
:1042500081E00E94E90C8BE39FE10197F1F7E1E037
:10426000809158068111E0E0E195F0E0EB5BF94FB9
:10427000848980680E94E90C69E973E085E496E02E
:104280000E94D30FE0915806E23008F0E2C0E150FE
:10429000F0E0EB5BF94F848980680E94E90C609143
:1042A000740470917504809176049091770441E0D4
:1042B0000E94DA0E66EA73E085E496E00E94D30F6E
:1042C00068EA73E085E496E00E94D30F6091700481
:1042D00070917104809172049091730441E00E9486
:1042E000DA0E6AEA73E085E496E00E94D30F67E68F
:1042F00072E083E894E00E94BC0F4B8D5C8D6F8967
:10430000788D83E894E00E94AB0267E672E083E870
:1043100094E00E94BC0F8CE495E00E94C30B8823BC
:1043200009F487C180917F05811114C0F0927F0547
:10433000F092800510920106109202061092030678
:1043400010920406109205061092060610920706B7
:10435000109208064B8D5C8D6F89788D8CE495E00A
:104360000E94CF128CE495E00E94DE0D80917F05C3
:10437000882309F448C16091800560688CE495E069
:104380000E941A0EE0910106E0900206A09003063A
:10439000B09004060091050610910606B09107063C
:1043A000F09108062E2F3E2DA501B8018B2F9F2FCF
:1043B000ADE70E94222E11F008F04DC06E2F60680C
:1043C0008CE495E00E941A0E8E010F5F1F4F0E9431
:1043D0001824A30192010E944F2CF80161938F01D0
:1043E000CE16DF06A1F744E050E0BE016F5F7F4FBD
:1043F0008CE495E00E94F40D609101063091020674
:10440000462F532FECE4F5E090E080E031968417DE
:1044100095070CF0DEC0DC01A370BB2701E010E0C3
:104420000C0F1D1FA00FB11F24A97C91272724ABBF
:104430000196ECCFCE010B960E947E18C5CDCE0121
:104440000B960E942C12C5CECE010B960E942C1208
:10445000E2CEE1E01DCFA501B8012E3F3F4F41055F
:104460005105610571058105910509F000F56EEFB3
:104470008CE495E00E941A0E20910106309102060C
:10448000409103065091040660910506709106065E
:10449000809107069091080608E00E94F52D622F92
:1044A0008CE495E00E941A0E6091010689CF6FEFAF
:1044B0008CE495E00E941A0E2091010630910206CC
:1044C000409103065091040660910506709106061E
:1044D000809107069091080608E30E94F52D622F4F
:1044E0008CE495E00E941A0E20910106309102069C
:1044F00040910306509104066091050670910606EE
:10450000809107069091080600E30E94F52D622F26
:104510008CE495E00E941A0E20910106309102066B
:1045200040910306509104066091050670910606BD
:10453000809107069091080608E20E94F52D622FEF
:104540008CE495E00E941A0E20910106309102063B
:10455000409103065091040660910506709106068D
:10456000809107069091080600E20E94F52D622FC7
:104570008CE495E00E941A0E20910106309102060B
:10458000409103065091040660910506709106065D
:10459000809107069091080608E10E94F52D622F90
:1045A0008CE495E00E941A0E2091010630910206DB
:1045B000409103065091040660910506709106062D
:1045C000809107069091080600E10E94F52D622F68
:1045D0004FCF10927F0510920106109202061092A2
:1045E0000306109204061092050610920606109219
:1045F000070610920806462F532F61E875E08CE4F9
:1046000095E00E94F40D64E971E180E090E00E9481
:10461000ED04CE0147960E943E122114310409F4A4
:1046200031CD0E941503882309F42CCD0E9400008F
:1046300029CD6CEA73E083E894E00E94BC0F2CE57E
:1046400031E03A8329831B821C821D821E82809165
:104650006F048130B9F4CE0101960E94DE1863E543
:1046600073E083E894E00E94D30FCE0101960E948C
:10467000CA0E0E94F41364EF71E080E090E00E94A3
:10468000ED04C1CFCE0101960E947E18E8CF86EEE0
:1046900092E00E94AE1068EB7BE080E090E00E9428
:1046A000ED040E94650281EE92E00E94AE1085ED5D
:1046B00092E00E94AE1068EC70E080E090E00E9412
:1046C000ED0489EC92E00E94AE108BEB92E00E9428
:1046D000AE108BEA92E00E94AE108DE992E00E944B
:1046E000AE1068EC70E080E090E00E94ED04109263
:1046F000470406E010E027E434E046E852E069E8C9
:1047000072E086E992E00E94E917809147048153A4
:10471000823028F4809148048E3209F4E4CB63E5BA
:1047200072E083E894E00E94D30F68E073E083E8CE
:1047300094E00E94870260E772E083E894E00E94C0
:10474000D30F67E474E083E894E00E94BC0F60EA52
:104750007FE080E090E00E94ED04DDCBEF920F93CC
:104760001F93CF93DF93E80134E047FD34E1042E3B
:10477000000C550B57FF03C0519541955109E32E8D
:10478000022F242FAE010E941B28CE01DF91CF9172
:104790001F910F91EF9008958F929F92AF92BF92C9
:1047A000CF92DF92EF92FF92CF93DF93EC0168817B
:1047B00079818A819B81611571058105910521F4BB
:1047C00064E279ED8BE597E02DE133EF41E050E0D5
:1047D0000E944F2C49015A019B01AC01A7EAB1E4A8
:1047E0000E946E2C6B017C01ACEEB4EFA50194012C
:1047F0000E947C2CC60ED71EE81EF91EF7FE06C0CE
:1048000081E0C81AD108E10880E8F80AC882D98294
:10481000EA82FB82C701B6019F77DF91CF91FF90BB
:10482000EF90DF90CF90BF90AF909F908F900895C2
:104830008F929F92AF92BF92CF92DF92EF92FF92B0
:10484000609108017091090180910A0190910B011A
:10485000611571058105910521F464E279ED8BE51F
:1048600097E02DE133EF41E050E00E944F2C4901E9
:104870005A019B01AC01A7EAB1E40E946E2C6B01C6
:104880007C01ACEEB4EFA50194010E947C2CC60E15
:10489000D71EE81EF91EF7FE06C081E0C81AD1082F
:1048A000E10880E8F80AC0920801D0920901E0927C
:1048B0000A01F0920B01C701B6019F77FF90EF90BC
:1048C000DF90CF90BF90AF909F908F9008956093AE
:1048D00008017093090180930A0190930B010895D8
:1048E000B0E0A0E0E6E7F4E20C94822C5C016B01FE
:1048F0007A016115710519F0FB0191838083E11440
:10490000F10451F0C7010297839730F040E030E0A6
:1049100020E090E072C05E01E5012196F501108172
:10492000812F90E00E94A525892BA9F71D3201F562
:104930002196F501118101E0E114F10409F4DAC0D6
:10494000F0E1EF16F10409F082C0103359F48881C8
:104950008F7D883509F076C0198122960260F0E1DA
:10496000EF2EF12C812C912CA12C88E0B82E8CC03C
:104970001B3221F4E5012296F501118100E0DCCF24
:10498000EAE0EE16F10409F4BBC0F0E1EF16F10421
:1049900009F06DC0E7CF78E0E72EF12C812C912C47
:1049A000A12C60E1B62E70C03FE9310F3A3128F4F6
:1049B00039EA332E80C021E09AC0302F3170C11403
:1049C000D10431F0222309F12197F601D183C0836C
:1049D00027FF21C060E070E080E090E8311104C062
:1049E0006FEF7FEF8FEF9FE722E230E030937106A9
:1049F00020937006462F372F282F642F732F822F76
:104A0000CDB7DEB7E1E10C949E2C01FF04C02297E4
:104A1000F601D183C083332341F090958095709542
:104A200061957F4F8F4F9F4FE5CF97FFE3CF82E296
:104A300090E090937106809370066FEF7FEF8FEF99
:104A40009FE7D8CF10E3E114F10409F4A4CF28E0E4
:104A5000E216F10409F4A2CF0CF092CF812C912C34
:104A6000A12CE0E4BE2E82E0E816F10469F060E0DB
:104A700070E080E090E897010F2C000C440B550B80
:104A80000E942D2C49015A0120E060E070E0CB012A
:104A900027010F2C000C66087708FE0150ED352E1B
:104AA000310E39E0331540F43FEB310F3A3108F065
:104AB0007BCF49EC342E310E3E141F040CF07DCF19
:104AC00027FD15C086169706A806B90678F0A3013B
:104AD00092010E941D2C630D711D811D911D61307D
:104AE0007105810520E8920708F465CF2FEF219624
:104AF0001081D3CF103309F42ACF2AE0E22EF12C13
:104B00009CEC892E982CA82C9CE0B92EBDCFFC01E2
:104B100088279927E89421912032E9F3293010F071
:104B20002E30C8F32B3241F02D3239F4689404C092
:104B30000E94EA25820F911D219120532A30C0F353
:104B40001EF4909581959F4F089591110C94522ACF
:104B5000803219F089508550C8F70895FB01DC01B7
:104B600005900D920020E1F70895FC0105900020CA
:104B7000E9F7809590958E0F9F1F08954EE656E0B9
:104B80000E94C3250895FA01A191B081009719F4FC
:104B90001097E1F0CD01DC01CD010D90002011F462
:104BA000C00113C0FB012191222319F02015D9F770
:104BB000F3CFFB012191201519F41E92119606C026
:104BC0002223C1F70D900020A1F7D001FA01A19393
:104BD000B08308957AE0979F902D879F802D910D47
:104BE00011240895AEE0B0E0E8EFF5E20C948F2CCC
:104BF0000D891E898EE08C831A8309838FEF9FE7CE
:104C00009E838D83AE01475E5F4F6F89788DCE01A5
:104C100001960E9441262F813885020F131FF8014B
:104C200010822E96E4E00C94AB2CAEE0B0E0EBE109
:104C3000F6E20C948F2C8C01FA018EE08C831A839F
:104C4000098377FF02C060E070E8615071097E83DC
:104C50006D83A901BF01CE0101960E9441264D81BD
:104C60005E8157FD0AC02F813885421753070CF427
:104C70009A01020F131FF80110822E96E4E00C94A3
:104C8000AB2CABE0B0E0E7E4F6E20C94812C7C01C5
:104C90003B018A01FC0117821682838181FFC8C112
:104CA000CE0101965C01F7019381F30193FD85919B
:104CB00093FF81913F01882309F453C1853239F470
:104CC00093FD859193FF81913F01853229F4B701CE
:104CD00090E00E946B2AE7CF912C212C312CFFE130
:104CE000F31538F08B3211F190F4803209F18332F0
:104CF00029F137FC3CC020ED280F2A3050F536FE54
:104D000020C08AE0989E200D1124922E06C08D327C
:104D100091F0803371F7689430F8F30193FD859139
:104D200093FF81913F018111DACF21C0689431F85E
:104D3000689432F8F2CF689433F8EFCF689434F87F
:104D4000ECCFEAE02E9E200D1124222E689435F837
:104D5000E4CF8E3229F436FC04C1689436F8DDCFF6
:104D60008C3619F4689437F8D8CF8836B1F2982F7A
:104D70009F7D95549330E0F08336A1F18337C1F1E4
:104D8000833509F063C02801F2E04F0E511CF80191
:104D9000C080D180692D70E036FC02C06FEF7FEFDC
:104DA000C6010E94552A4C01689437F882010AC056
:104DB0000C5F1F4FFFE3F98388248394912C6501D6
:104DC000E89437F833FE2DC0522C8114910471F50C
:104DD000552009F468CFB70180E290E00E946B2A69
:104DE0005A94F6CFF801808189830E5F1F4FE4CF7C
:104DF0002801F2E04F0E511CF801C080D180692DCE
:104E000070E036FC02C06FEF7FEFC6010E94602A9F
:104E10004C018201D5CFB70180E290E00E946B2A5D
:104E20002A942814190409F0B0F7CECFF60137FC04
:104E3000859137FE81916F01B70190E00E946B2A46
:104E400051105A94F1E08F1A9108BFCF843619F0AF
:104E5000893609F077C0F80137FE6BC06081718137
:104E6000828193810C5F1F4FF32DFF763F2E97FFBA
:104E700009C090958095709561957F4F8F4F9F4F9A
:104E8000689437F82AE030E0A5010E949B2AC82EDA
:104E9000CA188C2C432C36FE0CC0E89440F8C91478
:104EA00040F434FE05C032FC03C0F32DFE7E4F2ECD
:104EB000892C44FE95C0FE01EC0DF11D80818033EC
:104EC00009F087C0242D297E422E842D8870582E0B
:104ED00043FC95C040FE8FC09C2C821418F42C0C0F
:104EE000922C981844FE91C0B70180E390E00E9494
:104EF0006B2A42FE09C088E790E041FE02C088E5C7
:104F000090E0B7010E946B2AC91408F48AC0CA94C1
:104F1000D12C9FEFC91AD90ACA0CDB1CF601829169
:104F20006F01B70190E00E946B2AAC14BD04B1F789
:104F30004FCF60817181072E000C880B990B0E5F9B
:104F40001F4F92CFD32CE894D4F82AE030E0853775
:104F500039F1232D297FD22E8F3601F148F488357F
:104F6000A9F0F701868197812B96E2E10C949D2CA4
:104F7000803749F08837A9F7D4FE02C06894D2F888
:104F800020E130E00DC06894D4F8F6CF34FE03C0C1
:104F9000822F8660D82E20E132E002C028E030E087
:104FA000F801D7FE0FC060817181828193810C5F0F
:104FB0001F4FA5010E949B2AC82ECA183D2CE894B9
:104FC00037F867CF6081718190E080E00E5F1F4FFE
:104FD000F0CF42FC02C0839478CF8394839475CF42
:104FE000842D867809F471CFF6CFB70180E290E086
:104FF0000E946B2A83948214C0F3512C73CF522CDD
:105000005818821408F46ECFF8CF842D867809F4EE
:105010007BCF8BE241FE80E247FC8DE2B70190E05E
:1050200071CFB70180E390E00E946B2A9A946CCF15
:105030008FEF9FEF99CFA9E0B0E0E1E2F8E20C94A6
:10504000872C6A01F22EB02E102FFBE3AF2EA01694
:1050500008F41BE31F5F012F27E0AE014F5F5F4F96
:105060000E947A29BC018981982F9970913009F4A6
:105070003FC09BE2E1FC04C09E2D9170E0FC3AC071
:105080005E2D5071E82FE87083FF46C084E09111D7
:1050900001C083E0EF2DE81B8F1508F0E0E0D6019A
:1050A0008E2F20E2552351F1992329F0D6019C93AC
:1050B000C60101966C0196012D5F3F4FE2FE24C0B0
:1050C0008EE4D6018C9391E411969C9311971296DD
:1050D0008C93D9018E2F90E281111BC0E20FF32F28
:1050E000F11D10828EEF9FEF2996ECE00C94A32C1B
:1050F0009DE2C6CF90E2C4CF2D9381508111FCCFA9
:10510000CE0ED11CE0E0D0CF8EE6D6018C9391E696
:10511000DBCF9D938150E0CF482F447082FF3DC08C
:1051200084E0911101C083E08F1510F4EF2DE81B8E
:10513000D6018E2F20E2552309F1992329F0D601BB
:105140009C93C60101966C0196012D5F3F4FE2FED4
:105150001BC089E4D6018C938EE411968C93119731
:1051600086E412968C93D9018E2F90E2882309F45D
:10517000B5CF9D938150FACF2D9381508111FCCFF3
:10518000CE0ED11CE0E0D9CF89E6D6018C938EE615
:1051900011968C93119786E6E4CF9B0177FF02C0AE
:1051A00030E020E0A1E0B0E0911102C0B0E0A0E06A
:1051B000F9013196AE0FBF1F8B2C912CBB2009F447
:1051C00061C05401EFEFAE1ABE0AAA0DBB1DFA165C
:1051D0001B0619F014F04F2D4A1B511188C0E3FC37
:1051E00059C07601A42FB0E2A1114FC0C40ED11C4A
:1051F000992309F45BC040E0D6011196F601908333
:105200006D01552309F448C0012F060F9A81582FCC
:10521000507184FF03C0913309F4015010160CF053
:1052200047C0093008F008E0EEE2FE2E5B01A01A4C
:10523000B10885019194819491082F3F320729F498
:10524000D601FC92F60131966F016217730794F153
:10525000021713077CF5DB01A21BB30BAA24A3944E
:10526000B12CAC0EBD1EAA0DBB1D11968C91215008
:105270003109D601119628153905F4F0F60180831D
:105280006D01DBCFB12CA12CA0CFF701B1937F0131
:10529000A150AACF9111B0CFD601942F50E302C0F4
:1052A0005D9391509111FCCFC40ED11C40E0ACCF66
:1052B00001E0BACF80E3DBCF6217730731F4963396
:1052C00088F4953311F4552369F0F6018083FD01CC
:1052D000842F90E2811108C0A40FB11D1C9290E0B0
:1052E00080E002CF81E3F1CF91938150F3CF911110
:1052F00083CF8ACF283008F027E03327DA01990FCF
:10530000311D87FD916000966105710539F43260A9
:105310002E5F3D9330E32A95E1F708959F3F30F0EB
:1053200080387105610509F03C5F3C5F3D93913029
:1053300008F08068911DDF93CF931F930F93FF9226
:10534000EF92192F987F9695E92F96959695E90FEC
:10535000FF27EE53FF4F99273327EE24FF24A701A1
:10536000E70105900894079428F4360FE71EF81E0D
:10537000491F511D660F771F881F991F0694A1F7BB
:105380000590079428F4E70EF81E491F561FC11D0B
:10539000770F881F991F661F0694A1F70590079441
:1053A00028F4F80E491F561FC71FD11D880F991FDB
:1053B000661F771F0694A1F70590079420F4490F04
:1053C000561FC71FD81F990F661F771F881F069487
:1053D000A9F784911095177041F0D695C795579508
:1053E0004795F794E7941A95C1F7E8E6F0E06894DA
:1053F0001590159135916591959105907FE2739582
:10540000E118F10A430B560BC90BD009C0F7E10CA8
:10541000F11E431F561FC91FD01D7EF4703311F4B7
:105420008A95E6CFE894015030F0080F0AF400277F
:10543000021708F4202F2395022F7A3328F079E3FE
:105440007D932A95E9F710C07D932A9589F60694F5
:1054500097956795379517951794E118F10A430BBF
:10546000560BC90BD00998F023957E9173957A332A
:1054700008F070E37C932013B8F77E9170617D9300
:1054800030F0839571E37D9370E32A95E1F7112461
:10549000EF90FF900F911F91CF91DF91992787FD9A
:1054A00090950895992788270895FC0105906150EB
:1054B00070400110D8F7809590958E0F9F1F08952A
:1054C000FC016150704001900110D8F780959095D3
:1054D0008E0F9F1F08950F931F93CF93DF93182F65
:1054E000092FEB018B8181FD09C01FEF0FEF812F89
:1054F000902FDF91CF911F910F91089582FF14C0DB
:105500002E813F818C819D81281739073CF4E881E9
:10551000F981CF0101969983888310838E819F81C1
:1055200001969F838E83E3CFE885F985812F0995C6
:10553000892BA1F3DACFFA01AA27283051F12031C3
:1055400081F1E8946F936E7F6E5F7F4F8F4F9F4F17
:10555000AF4FB1E03ED0B4E03CD0670F781F891F59
:105560009A1FA11D680F791F8A1F911DA11D6A0F27
:10557000711D811D911DA11D20D009F468943F91DA
:105580002AE0269F11243019305D3193DEF6CF01D9
:105590000895462F4770405D4193B3E00FD0C9F79F
:1055A000F6CF462F4F70405D4A3318F0495D31FD0C
:1055B0004052419302D0A9F7EACFB4E0A69597955F
:1055C000879577956795BA95C9F700976105710535
:1055D00008959B01AC010A2E06945795479537957F
:1055E0002795BA95C9F7620F731F841F951FA01DD9
:1055F00008950E943B2B08F481E00895E89409C0C7
:1056000097FB3EF490958095709561957F4F8F4FF5
:105610009F4F9923A9F0F92F96E9BB279395F6950B
:10562000879577956795B795F111F8CFFAF4BB0F89
:1056300011F460FF1BC06F5F7F4F8F4F9F4F16C0ED
:10564000882311F096E911C0772321F09EE8872F77
:10565000762F05C0662371F096E8862F70E060E033
:105660002AF09A95660F771F881FDAF7880F9695AC
:10567000879597F90895990F0008550FAA0BE0E850
:10568000FEEF16161706E807F907C0F01216130604
:10569000E407F50798F0621B730B840B950B39F444
:1056A0000A2661F0232B242B252B21F408950A26AA
:1056B00009F4A140A6958FEF811D811D08950E94D8
:1056C000722B0C94E32B0E94D52B38F00E94DC2B1C
:1056D00020F0952311F00C94CC2B0C94D22B112498
:1056E0000C94172C0E94F42B70F3959FC1F3950F27
:1056F00050E0551F629FF001729FBB27F00DB11D56
:10570000639FAA27F00DB11DAA1F649F6627B00DE5
:10571000A11D661F829F2227B00DA11D621F739FCE
:10572000B00DA11D621F839FA00D611D221F749FDC
:105730003327A00D611D231F849F600D211D822F23
:10574000762F6A2F11249F5750409AF0F1F088234A
:105750004AF0EE0FFF1FBB1F661F771F881F915077
:105760005040A9F79E3F510580F00C94CC2B0C942F
:10577000172C5F3FE4F3983ED4F3869577956795B1
:10578000B795F795E7959F5FC1F7FE2B880F911DA1
:105790009695879597F9089597F99F6780E870E047
:1057A00060E008959FEF80EC089500240A94161697
:1057B000170618060906089500240A9412161306FF
:1057C000140605060895092E0394000C11F488238D
:1057D00052F0BB0F40F4BF2B11F460FF04C06F5FA9
:1057E0007F4F8F4F9F4F089557FD9058440F551F7F
:1057F00059F05F3F71F04795880F97FB991F61F053
:105800009F3F79F087950895121613061406551FC9
:10581000F2CF4695F1DF08C0161617061806991F35
:10582000F1CF86957105610508940895E894BB272A
:1058300066277727CB0197F90895DB018F939F9314
:105840000E946E2CBF91AF91A29F800D911DA39FCE
:10585000900DB29F900D11240895A1E21A2EAA1B5B
:10586000BB1BFD010DC0AA1FBB1FEE1FFF1FA21710
:10587000B307E407F50720F0A21BB30BE40BF50B0D
:10588000661F771F881F991F1A9469F76095709596
:10589000809590959B01AC01BD01CF010895052E27
:1058A00097FB1EF400940E94662C57FD07D00E94BF
:1058B0002D2C07FC03D04EF40C94662C509540958B
:1058C000309521953F4F4F4F5F4F089590958095AC
:1058D000709561957F4F8F4F9F4F08950E94B82C10
:1058E000A59F900DB49F900DA49F800D911D112434
:1058F0000895B7FF0C946E2C0E946E2C821B930BA4
:1059000008952F923F924F925F926F927F928F9263
:105910009F92AF92BF92CF92DF92EF92FF920F933E
:105920001F93CF93DF93CDB7DEB7CA1BDB0B0FB648
:10593000F894DEBF0FBECDBF09942A883988488805
:105940005F846E847D848C849B84AA84B984C8849B
:10595000DF80EE80FD800C811B81AA81B981CE0F92
:10596000D11D0FB6F894DEBF0FBECDBFED01089577
:10597000A29FB001B39FC001A39F700D811D112490
:10598000911DB29F700D811D1124911D08955058D5
:10599000BB27AA270E94DF2C0C94E32B0E94D52B57
:1059A00038F00E94DC2B20F039F49F3F19F426F4E4
:1059B0000C94D22B0EF4E095E7FB0C94CC2BE92F42
:1059C0000E94F42B58F3BA176207730784079507F0
:1059D00020F079F4A6F50C94162C0EF4E0950B2E1D
:1059E000BA2FA02D0B01B90190010C01CA01A00131
:1059F0001124FF27591B99F0593F50F4503E68F18C
:105A00001A16F040A22F232F342F4427585FF3CFCC
:105A1000469537952795A795F0405395C9F77EF49D
:105A20001F16BA0B620B730B840BBAF09150A1F0E6
:105A3000FF0FBB1F661F771F881FC2F70EC0BA0F6C
:105A4000621F731F841F48F4879577956795B795F4
:105A5000F7959E3F08F0B0CF9395880F08F09927EF
:105A6000EE0F9795879508950E94482D0C94E32B8F
:105A70000E94DC2B58F00E94D52B40F029F45F3FA8
:105A800029F00C94CC2B51110C94172C0C94D22B84
:105A90000E94F42B68F39923B1F3552391F3951BDE
:105AA000550BBB27AA2762177307840738F09F5F3F
:105AB0005F4F220F331F441FAA1FA9F335D00E2EAC
:105AC0003AF0E0E832D091505040E695001CCAF719
:105AD0002BD0FE2F29D0660F771F881FBB1F2617DC
